:020000040000FA
:100000000C945D000C945E030C9437030C948500F3
:100010000C9485000C9485000C9485000C9485004C
:100020000C9485000C9485000C9485000C9485003C
:100030000C9485000C9485000C9485000C9485002C
:100040000C94ED020C9485000C94BB020C94950268
:100050000C9485000C9485000C9485000C9485000C
:100060000C9485000C9485000000000024002700FB
:100070002A0000000000250028002B0004040404CE
:100080000404040402020202020203030303030342
:10009000010204081020408001020408102001021F
:1000A00004081020000000080002010000030407FB
:1000B00000000000000000000F0511241FBECFEF5C
:1000C000D8E0DEBFCDBF11E0A0E0B1E0E8E9FBE0A1
:1000D00002C005900D92A832B107D9F721E0A8E23D
:1000E000B1E001C01D92A73DB207E1F710E0CDE5F8
:1000F000D0E004C02197FE010E94C405CC35D10791
:10010000C9F70E9485030C94CA050C9400008091E5
:10011000350190913601A0913701B09138010196D7
:10012000A11DB11D8093350190933601A093370135
:10013000B09338010895AF92BF92CF92DF92EF92C1
:10014000FF920F931F93CF93DF936C017B018B0181
:10015000040F151FEB015E01AE18BF08C017D107D1
:1001600059F06991D601ED91FC910190F081E02D5B
:10017000C6010995892B79F7C501DF91CF911F91B0
:100180000F91FF90EF90DF90CF90BF90AF900895C8
:10019000FC01538D448D252F30E0842F90E0821B8D
:1001A000930B541710F0CF96089501970895FC0112
:1001B000918D828D981761F0A28DAE0FBF2FB11D6A
:1001C0005D968C91928D9F5F9F73928F90E00895C2
:1001D0008FEF9FEF0895FC01918D828D981731F07C
:1001E000828DE80FF11D858D90E008958FEF9FEFD0
:1001F0000895FC01918D228D892F90E0805C9F4FA6
:10020000821B91098F73992708958AE391E00E94D8
:10021000F90021E0892B09F420E0822F089580E085
:1002200090E0892B29F00E94050181110C940000B7
:100230000895FC01A48DA80FB92FB11DA35ABF4F7B
:100240002C91848D90E001968F739927848FA689D5
:10025000B7892C93A089B1898C91837080648C9329
:10026000938D848D981306C00288F389E02D8081D8
:100270008F7D80830895EF92FF920F931F93CF930A
:10028000DF93EC0181E0888F9B8D8C8D98131AC0D1
:10029000E889F989808185FF15C09FB7F894EE89B8
:1002A000FF896083E889F989808183708064808315
:1002B0009FBF81E090E0DF91CF911F910F91FF9060
:1002C000EF900895F62E0B8D10E00F5F1F4F0F7308
:1002D0001127E02E8C8D8E110CC00FB607FCFACFC3
:1002E000E889F989808185FFF5CFCE010E94190147
:1002F000F1CFEB8DEC0FFD2FF11DE35AFF4FF08294
:100300009FB7F8940B8FEA89FB8980818062CFCFF9
:10031000CF93DF93EC01888D8823B9F0AA89BB893C
:10032000E889F9898C9185FD03C0808186FD0DC027
:100330000FB607FCF7CF8C9185FFF2CF808185FF48
:10034000EDCFCE010E941901E9CFDF91CF91089541
:1003500090E0FC01EC55FF4F2491FC01E057FF4F6A
:100360003491FC01E458FF4FE491EE23C9F02223BD
:1003700039F0233001F1A8F4213019F1223029F1AC
:10038000F0E0EE0FFF1FEE58FF4FA591B4918FB72D
:10039000F894EC91611126C030953E233C938FBFB9
:1003A00008952730A9F02830C9F0243049F780910A
:1003B00080008F7D03C0809180008F7780938000C4
:1003C000DFCF84B58F7784BDDBCF84B58F7DFBCF46
:1003D0008091B0008F778093B000D2CF8091B00031
:1003E0008F7DF9CF3E2BDACFCF93DF9390E0FC01E6
:1003F000E057FF4F249184589F4FFC01849188233C
:10040000D1F090E0880F991FFC01E859FF4FA591AA
:10041000B491FC01EE58FF4FC591D491623071F454
:100420009FB7F8943C91822F809583238C93E88129
:100430002E2B28839FBFDF91CF9108958FB7F8941B
:10044000EC912E2B2C938FBFF6CF08958F929F9215
:10045000AF92BF920F931F93CF93DF93CDB7DEB7C9
:10046000A1970FB6F894DEBF0FBECDBF19A24230E0
:1004700008F44AE08E010F5D1F4F842E912CB12CA1
:10048000A12CA50194010E94A205E62FB901CA0181
:10049000EA3044F5E05DD801EE938D01232B242B47
:1004A000252B79F790E080E0109769F0FD0101902D
:1004B0000020E9F73197AF014A1B5B0BBD018AE3CE
:1004C00091E00E949B00A1960FB6F894DEBF0FBE8C
:1004D000CDBFDF91CF911F910F91BF90AF909F90B3
:1004E0008F900895E95CD7CFCF92DF92EF92FF9281
:1004F000CF93DF936B017C016DE28AE391E00E9470
:100500003B01EC0166277727CB016C197D098E0929
:100510009F094AE00E9426028C0F9D1FDF91CF9118
:10052000FF90EF90DF90CF9008951F920F920FB63B
:100530000F9211242F933F934F935F936F937F9369
:100540008F939F93AF93BF93EF93FF938AE391E0D1
:100550000E941901FF91EF91BF91AF919F918F91EF
:100560007F916F915F914F913F912F910F900FBEAF
:100570000F901F9018951F920F920FB60F92112493
:100580002F938F939F93EF93FF93E0914A01F09104
:100590004B018081E0915001F091510182FD1BC01F
:1005A0009081809153018F5F8F7320915401821746
:1005B00041F0E0915301F0E0E65CFE4F958F8093AF
:1005C0005301FF91EF919F918F912F910F900FBE4B
:1005D0000F901F9018958081F4CF1F920F920FB645
:1005E0000F9211242F933F938F939F93AF93BF93B9
:1005F00080912D0190912E01A0912F01B091300199
:1006000030912C0123E0230F2D3758F50196A11DC1
:10061000B11D20932C0180932D0190932E01A09366
:100620002F01B09330018091280190912901A09170
:100630002A01B0912B010196A11DB11D80932801C3
:1006400090932901A0932A01B0932B01BF91AF9100
:100650009F918F913F912F910F900FBE0F901F9000
:10066000189526E8230F0296A11DB11DD2CF1F9227
:100670000F920FB60F9211242F933F934F935F93D6
:100680006F937F938F939F93AF93BF93EF93FF935A
:10069000E0910201F09103010995FF91EF91BF9163
:1006A000AF919F918F917F916F915F914F913F910A
:1006B0002F910F900FBE0F901F9018951F920F92C1
:1006C0000FB60F9211242F933F934F935F936F9325
:1006D0007F938F939F93AF93BF93EF93FF93E0919B
:1006E0000001F09101010995FF91EF91BF91AF9148
:1006F0009F918F917F916F915F914F913F912F913A
:100700000F900FBE0F901F901895789484B582605B
:1007100084BD84B5816084BD85B5826085BD85B5A5
:10072000816085BD80916E00816080936E00109223
:10073000810080918100826080938100809181009E
:10074000816080938100809180008160809380002F
:100750008091B10084608093B1008091B00081608D
:100760008093B00080917A00846080937A008091B9
:100770007A00826080937A0080917A008160809311
:100780007A0080917A00806880937A001092C1008C
:10079000E0914A01F0914B0182E08083E0914601B3
:1007A000F09147011082E0914801F09149018FECEE
:1007B000808310925201E0914E01F0914F0186E04A
:1007C0008083E0914C01F0914D01808180618083B4
:1007D000E0914C01F0914D01808188608083E0912F
:1007E0004C01F0914D01808180688083E0914C0143
:1007F000F0914D0180818F7D808362E083E00E94D3
:10080000F40161E087E00E94F40187E890E09093B2
:10081000030180930201809169008C6080936900DC
:10082000E99A2FB7F89480912D0190912E01A09113
:100830002F01B09130012FBF80933101909332018D
:10084000A0933301B09334018AEAE82E80E0F82EB9
:1008500000E010E098E2C92ED12CC0910401D091A3
:10086000050161E086E00E94F401209709F089C04B
:1008700060E086E00E94A801C09139016C2F87E0FA
:100880000E94A80160913501709136018091370175
:10089000909138010E943E052AE939E949E151E485
:1008A0000E9479051816ACF410920501109204010B
:1008B000CC2309F4ACC010923901D0920501C0924A
:1008C00004011092350110923601109237011092F6
:1008D00038012FB7F89480912D0190912E01A091AD
:1008E0002F01B09130012FBF409131015091320161
:1008F00060913301709134014C015D01841A950AB5
:10090000A60AB70AB501A4014B3F5105610571055F
:1009100064F18093310190933201A0933301B0933D
:10092000340149E050E068E171E08AE391E00E941F
:100930009B00609135017091360180913701909153
:10094000380197FF68C00E94740245E050E062E2FF
:1009500071E08AE391E00E949B006091390170E0B0
:1009600090E080E04AE00E9426020115110509F49A
:1009700074CF0E940501882309F46FCF0E94000004
:100980006CCFCF3FD10511F461E073CFF7018491B3
:10099000833019F140F48130B1F08230C9F0C038B1
:1009A000D10594F765CF873011F1883041F184305B
:1009B000B1F780918000806280938000D0938B009B
:1009C000C0938A0059CF84B5806884BDC7BD54CF19
:1009D00084B5806284BDC8BD4FCF8091800080689F
:1009E00080938000D0938900C093880045CF809188
:1009F000B00080688093B000C093B3003DCF809179
:100A0000B00080628093B000C093B40035CF81E025
:100A1000809339015ECF4AE00E94260296CFEAE336
:100A2000F1E01382128288EE93E0A0E0B0E08483CC
:100A30009583A683B7838AE091E09183808385ECD8
:100A400090E09587848784EC90E09787868780EC98
:100A500090E0918B808B81EC90E0938B828B82EC89
:100A600090E0958B848B86EC90E0978B868B118E33
:100A7000128E138E148E0895E89409C097FB3EF4ED
:100A800090958095709561957F4F8F4F9F4F9923DB
:100A9000A9F0F92F96E9BB279395F6958795779559
:100AA0006795B795F111F8CFFAF4BB0F11F460FF19
:100AB0001BC06F5F7F4F8F4F9F4F16C0882311F071
:100AC00096E911C0772321F09EE8872F762F05C085
:100AD000662371F096E8862F70E060E02AF09A9520
:100AE000660F771F881FDAF7880F9695879597F915
:100AF00008950E947E0508F48FEF0895990F00086D
:100B0000550FAA0BE0E8FEEF16161706E807F907DF
:100B1000C0F012161306E407F50798F0621B730B7A
:100B2000840B950B39F40A2661F0232B242B252BFB
:100B300021F408950A2609F4A140A6958FEF811D9E
:100B4000811D0895A1E21A2EAA1BBB1BFD010DC039
:100B5000AA1FBB1FEE1FFF1FA217B307E407F5076D
:100B600020F0A21BB30BE40BF50B661F771F881F49
:100B7000991F1A9469F760957095809590959B01DF
:100B8000AC01BD01CF010895EE0FFF1F0590F49158
:100B9000E02D0994F894FFCF2502250228000000DB
:100BA00000003B019B00C8008801F900D700EB0062
:100BB0002050554C5345533A20000A20200A20006B
:107E0000112484B714BE81FFF0D085E080938100F7
:107E100082E08093C00088E18093C10086E0809377
:107E2000C20080E18093C4008EE0C9D0259A86E02C
:107E300020E33CEF91E0309385002093840096BBD3
:107E4000B09BFECF1D9AA8958150A9F7CC24DD24C4
:107E500088248394B5E0AB2EA1E19A2EF3E0BF2EE7
:107E6000A2D0813461F49FD0082FAFD0023811F036
:107E7000013811F484E001C083E08DD089C08234E0
:107E800011F484E103C0853419F485E0A6D080C0E4
:107E9000853579F488D0E82EFF2485D0082F10E0AE
:107EA000102F00270E291F29000F111F8ED06801E7
:107EB0006FC0863521F484E090D080E0DECF843638
:107EC00009F040C070D06FD0082F6DD080E0C81688
:107ED00080E7D80618F4F601B7BEE895C0E0D1E017
:107EE00062D089930C17E1F7F0E0CF16F0E7DF06D8
:107EF00018F0F601B7BEE89568D007B600FCFDCFD4
:107F0000A601A0E0B1E02C9130E011968C91119780
:107F100090E0982F8827822B932B1296FA010C0160
:107F200087BEE89511244E5F5F4FF1E0A038BF0790
:107F300051F7F601A7BEE89507B600FCFDCF97BE46
:107F4000E89526C08437B1F42ED02DD0F82E2BD052
:107F50003CD0F601EF2C8F010F5F1F4F84911BD097
:107F6000EA94F801C1F70894C11CD11CFA94CF0C13
:107F7000D11C0EC0853739F428D08EE10CD085E9AC
:107F80000AD08FE07ACF813511F488E018D01DD067
:107F900080E101D065CF982F8091C00085FFFCCF94
:107FA0009093C60008958091C00087FFFCCF809118
:107FB000C00084FD01C0A8958091C6000895E0E648
:107FC000F0E098E1908380830895EDDF803219F02E
:107FD00088E0F5DFFFCF84E1DECF1F93182FE3DFCA
:107FE0001150E9F7F2DF1F91089580E0E8DFEE27F6
:047FF000FF270994CA
:027FFE00040479
:00000001FF
